{
  "_format": "hh-sol-artifact-1",
  "contractName": "MagicPay",
  "sourceName": "contracts/MagicPay.sol",
  "abi": [
    {
      "inputs": [],
      "stateMutability": "nonpayable",
      "type": "constructor"
    },
    {
      "anonymous": false,
      "inputs": [
        {
          "indexed": false,
          "internalType": "uint256",
          "name": "id",
          "type": "uint256"
        },
        {
          "indexed": false,
          "internalType": "string",
          "name": "email",
          "type": "string"
        },
        {
          "indexed": false,
          "internalType": "uint256",
          "name": "password",
          "type": "uint256"
        },
        {
          "indexed": false,
          "internalType": "uint256",
          "name": "amount",
          "type": "uint256"
        }
      ],
      "name": "PaymentCreated",
      "type": "event"
    },
    {
      "stateMutability": "payable",
      "type": "fallback"
    },
    {
      "inputs": [],
      "name": "bentoContract",
      "outputs": [
        {
          "internalType": "contract IBentoBoxMinimal",
          "name": "",
          "type": "address"
        }
      ],
      "stateMutability": "view",
      "type": "function"
    },
    {
      "inputs": [
        {
          "internalType": "bytes",
          "name": "",
          "type": "bytes"
        }
      ],
      "name": "checkUpkeep",
      "outputs": [
        {
          "internalType": "bool",
          "name": "upkeepNeeded",
          "type": "bool"
        },
        {
          "internalType": "bytes",
          "name": "",
          "type": "bytes"
        }
      ],
      "stateMutability": "nonpayable",
      "type": "function"
    },
    {
      "inputs": [],
      "name": "checkValidityUpkeep",
      "outputs": [
        {
          "internalType": "bool",
          "name": "",
          "type": "bool"
        }
      ],
      "stateMutability": "view",
      "type": "function"
    },
    {
      "inputs": [
        {
          "internalType": "uint256",
          "name": "amount",
          "type": "uint256"
        }
      ],
      "name": "convertToMatic",
      "outputs": [],
      "stateMutability": "nonpayable",
      "type": "function"
    },
    {
      "inputs": [
        {
          "internalType": "string",
          "name": "email",
          "type": "string"
        },
        {
          "internalType": "uint256",
          "name": "password",
          "type": "uint256"
        },
        {
          "internalType": "uint256",
          "name": "amount",
          "type": "uint256"
        }
      ],
      "name": "createPayment",
      "outputs": [],
      "stateMutability": "payable",
      "type": "function"
    },
    {
      "inputs": [],
      "name": "currentInterestEarned",
      "outputs": [
        {
          "internalType": "uint256",
          "name": "",
          "type": "uint256"
        }
      ],
      "stateMutability": "view",
      "type": "function"
    },
    {
      "inputs": [
        {
          "internalType": "uint256",
          "name": "amt",
          "type": "uint256"
        }
      ],
      "name": "deposit",
      "outputs": [
        {
          "internalType": "uint256",
          "name": "",
          "type": "uint256"
        },
        {
          "internalType": "uint256",
          "name": "",
          "type": "uint256"
        }
      ],
      "stateMutability": "nonpayable",
      "type": "function"
    },
    {
      "inputs": [
        {
          "internalType": "uint256",
          "name": "currentId",
          "type": "uint256"
        },
        {
          "internalType": "uint256",
          "name": "amt",
          "type": "uint256"
        }
      ],
      "name": "depositToBento",
      "outputs": [],
      "stateMutability": "nonpayable",
      "type": "function"
    },
    {
      "inputs": [
        {
          "internalType": "uint256",
          "name": "id",
          "type": "uint256"
        }
      ],
      "name": "getAmountBentoForPayment",
      "outputs": [
        {
          "internalType": "uint256",
          "name": "",
          "type": "uint256"
        }
      ],
      "stateMutability": "view",
      "type": "function"
    },
    {
      "inputs": [],
      "name": "getId",
      "outputs": [
        {
          "internalType": "uint256",
          "name": "",
          "type": "uint256"
        }
      ],
      "stateMutability": "view",
      "type": "function"
    },
    {
      "inputs": [
        {
          "internalType": "uint256",
          "name": "_id",
          "type": "uint256"
        }
      ],
      "name": "getPayment",
      "outputs": [
        {
          "components": [
            {
              "internalType": "uint256",
              "name": "id",
              "type": "uint256"
            },
            {
              "internalType": "string",
              "name": "email",
              "type": "string"
            },
            {
              "internalType": "uint256",
              "name": "password",
              "type": "uint256"
            },
            {
              "internalType": "uint256",
              "name": "amount",
              "type": "uint256"
            },
            {
              "internalType": "uint8",
              "name": "status",
              "type": "uint8"
            },
            {
              "internalType": "uint256",
              "name": "creationTimestamp",
              "type": "uint256"
            },
            {
              "internalType": "uint256",
              "name": "interestEarned",
              "type": "uint256"
            },
            {
              "internalType": "uint256",
              "name": "klima",
              "type": "uint256"
            },
            {
              "internalType": "address",
              "name": "creator",
              "type": "address"
            },
            {
              "internalType": "uint256",
              "name": "maticEarned",
              "type": "uint256"
            },
            {
              "internalType": "uint256",
              "name": "amountBento",
              "type": "uint256"
            },
            {
              "internalType": "uint256",
              "name": "shareBento",
              "type": "uint256"
            }
          ],
          "internalType": "struct MagicPay.Payment",
          "name": "",
          "type": "tuple"
        }
      ],
      "stateMutability": "view",
      "type": "function"
    },
    {
      "inputs": [],
      "name": "getPaymentsForAddress",
      "outputs": [
        {
          "internalType": "string[]",
          "name": "",
          "type": "string[]"
        },
        {
          "internalType": "uint256[]",
          "name": "",
          "type": "uint256[]"
        },
        {
          "internalType": "uint8[]",
          "name": "",
          "type": "uint8[]"
        },
        {
          "internalType": "uint256[]",
          "name": "",
          "type": "uint256[]"
        },
        {
          "internalType": "uint256[]",
          "name": "",
          "type": "uint256[]"
        }
      ],
      "stateMutability": "view",
      "type": "function"
    },
    {
      "inputs": [
        {
          "internalType": "uint256",
          "name": "id",
          "type": "uint256"
        }
      ],
      "name": "getShareBentoForPayment",
      "outputs": [
        {
          "internalType": "uint256",
          "name": "",
          "type": "uint256"
        }
      ],
      "stateMutability": "view",
      "type": "function"
    },
    {
      "inputs": [
        {
          "internalType": "uint256",
          "name": "amt",
          "type": "uint256"
        }
      ],
      "name": "getWMatic",
      "outputs": [],
      "stateMutability": "nonpayable",
      "type": "function"
    },
    {
      "inputs": [],
      "name": "id",
      "outputs": [
        {
          "internalType": "uint256",
          "name": "",
          "type": "uint256"
        }
      ],
      "stateMutability": "view",
      "type": "function"
    },
    {
      "inputs": [],
      "name": "interval",
      "outputs": [
        {
          "internalType": "uint256",
          "name": "",
          "type": "uint256"
        }
      ],
      "stateMutability": "view",
      "type": "function"
    },
    {
      "inputs": [],
      "name": "lastTimeStamp",
      "outputs": [
        {
          "internalType": "uint256",
          "name": "",
          "type": "uint256"
        }
      ],
      "stateMutability": "view",
      "type": "function"
    },
    {
      "inputs": [
        {
          "internalType": "uint256",
          "name": "",
          "type": "uint256"
        }
      ],
      "name": "payments",
      "outputs": [
        {
          "internalType": "uint256",
          "name": "id",
          "type": "uint256"
        },
        {
          "internalType": "string",
          "name": "email",
          "type": "string"
        },
        {
          "internalType": "uint256",
          "name": "password",
          "type": "uint256"
        },
        {
          "internalType": "uint256",
          "name": "amount",
          "type": "uint256"
        },
        {
          "internalType": "uint8",
          "name": "status",
          "type": "uint8"
        },
        {
          "internalType": "uint256",
          "name": "creationTimestamp",
          "type": "uint256"
        },
        {
          "internalType": "uint256",
          "name": "interestEarned",
          "type": "uint256"
        },
        {
          "internalType": "uint256",
          "name": "klima",
          "type": "uint256"
        },
        {
          "internalType": "address",
          "name": "creator",
          "type": "address"
        },
        {
          "internalType": "uint256",
          "name": "maticEarned",
          "type": "uint256"
        },
        {
          "internalType": "uint256",
          "name": "amountBento",
          "type": "uint256"
        },
        {
          "internalType": "uint256",
          "name": "shareBento",
          "type": "uint256"
        }
      ],
      "stateMutability": "view",
      "type": "function"
    },
    {
      "inputs": [
        {
          "internalType": "bytes",
          "name": "",
          "type": "bytes"
        }
      ],
      "name": "performUpkeep",
      "outputs": [],
      "stateMutability": "nonpayable",
      "type": "function"
    },
    {
      "inputs": [],
      "name": "performUpkeep2",
      "outputs": [],
      "stateMutability": "nonpayable",
      "type": "function"
    },
    {
      "inputs": [
        {
          "internalType": "address",
          "name": "receiver",
          "type": "address"
        },
        {
          "internalType": "uint256",
          "name": "_id",
          "type": "uint256"
        },
        {
          "internalType": "uint256",
          "name": "password",
          "type": "uint256"
        }
      ],
      "name": "sendPayment",
      "outputs": [
        {
          "internalType": "bool",
          "name": "",
          "type": "bool"
        }
      ],
      "stateMutability": "nonpayable",
      "type": "function"
    },
    {
      "inputs": [
        {
          "internalType": "address",
          "name": "_address",
          "type": "address"
        }
      ],
      "name": "setBentoAddress",
      "outputs": [],
      "stateMutability": "nonpayable",
      "type": "function"
    },
    {
      "inputs": [
        {
          "internalType": "uint256",
          "name": "_interval",
          "type": "uint256"
        }
      ],
      "name": "setInterval",
      "outputs": [],
      "stateMutability": "nonpayable",
      "type": "function"
    },
    {
      "inputs": [
        {
          "internalType": "uint256",
          "name": "_waitInterval",
          "type": "uint256"
        }
      ],
      "name": "setWaitInterval",
      "outputs": [],
      "stateMutability": "nonpayable",
      "type": "function"
    },
    {
      "inputs": [],
      "name": "totalInterestEarned",
      "outputs": [
        {
          "internalType": "uint256",
          "name": "",
          "type": "uint256"
        }
      ],
      "stateMutability": "view",
      "type": "function"
    },
    {
      "inputs": [],
      "name": "waitInterval",
      "outputs": [
        {
          "internalType": "uint256",
          "name": "",
          "type": "uint256"
        }
      ],
      "stateMutability": "view",
      "type": "function"
    },
    {
      "inputs": [
        {
          "internalType": "uint256",
          "name": "shares",
          "type": "uint256"
        }
      ],
      "name": "withdrawBento",
      "outputs": [
        {
          "internalType": "uint256",
          "name": "amountOut",
          "type": "uint256"
        },
        {
          "internalType": "uint256",
          "name": "shareOut1",
          "type": "uint256"
        }
      ],
      "stateMutability": "nonpayable",
      "type": "function"
    },
    {
      "inputs": [
        {
          "internalType": "uint256",
          "name": "_id",
          "type": "uint256"
        }
      ],
      "name": "withdrawFromBento",
      "outputs": [],
      "stateMutability": "nonpayable",
      "type": "function"
    },
    {
      "stateMutability": "payable",
      "type": "receive"
    }
  ],
  "bytecode": "0x608060405261012c600055607860015534801561001b57600080fd5b504260028190555073f5bce5077908a1b7370b9ae04adc565ebd643966600760006101000a81548173ffffffffffffffffffffffffffffffffffffffff021916908373ffffffffffffffffffffffffffffffffffffffff160217905550600760009054906101000a900473ffffffffffffffffffffffffffffffffffffffff1673ffffffffffffffffffffffffffffffffffffffff1663aee4d1b26040518163ffffffff1660e01b8152600401600060405180830381600087803b1580156100e257600080fd5b505af11580156100f6573d6000803e3d6000fd5b50505050613c3a806200010a6000396000f3fe6080604052600436106101bb5760003560e01c80638f9757a3116100ec578063b6555f9f1161008a578063ce90b5bc11610064578063ce90b5bc1461063d578063dbe40b4114610666578063ea7d74fe1461068f578063f2234713146106b8576101c2565b8063b6555f9f146105b8578063b6b55f25146105d4578063b7d93f3414610612576101c2565b80639640110e116100c65780639640110e1461050e578063976b54b514610539578063af640d0f14610562578063b29618861461058d576101c2565b80638f9757a3146104a1578063947a36fb146104cc57806395d3b84e146104f7576101c2565b80635d1ca631116101595780638514bd3c116101335780638514bd3c146103b457806387d81789146103df57806389837a07146104275780638d82e72f14610464576101c2565b80635d1ca631146103225780636352be2c1461034d5780636e04ff0d14610376576101c2565b80633e2fc9a5116101955780633e2fc9a5146102685780633f3b3b27146102915780634585e33b146102bc57806355bc5b65146102e5576101c2565b806322a90082146101c4578063314507ba146101ed5780633280a8361461022b576101c2565b366101c257005b005b3480156101d057600080fd5b506101eb60048036038101906101e69190612e31565b6106e7565b005b3480156101f957600080fd5b50610214600480360381019061020f9190612e31565b6106f1565b6040516102229291906136fc565b60405180910390f35b34801561023757600080fd5b50610252600480360381019061024d9190612e31565b6107d7565b60405161025f91906135b2565b60405180910390f35b34801561027457600080fd5b5061028f600480360381019061028a9190612e31565b610abc565b005b34801561029d57600080fd5b506102a6610cf2565b6040516102b391906135d4565b60405180910390f35b3480156102c857600080fd5b506102e360048036038101906102de9190612d85565b610cf8565b005b3480156102f157600080fd5b5061030c60048036038101906103079190612e31565b6110dc565b60405161031991906135d4565b60405180910390f35b34801561032e57600080fd5b50610337611131565b60405161034491906135d4565b60405180910390f35b34801561035957600080fd5b50610374600480360381019061036f9190612e5a565b61113b565b005b34801561038257600080fd5b5061039d60048036038101906103989190612d85565b6111ae565b6040516103ab92919061347e565b60405180910390f35b3480156103c057600080fd5b506103c96111cd565b6040516103d691906134ae565b60405180910390f35b3480156103eb57600080fd5b5061040660048036038101906104019190612e31565b6111f3565b60405161041e9c9b9a9998979695949392919061363b565b60405180910390f35b34801561043357600080fd5b5061044e60048036038101906104499190612e31565b611318565b60405161045b91906135d4565b60405180910390f35b34801561047057600080fd5b5061048b60048036038101906104869190612d0d565b61136d565b6040516104989190613463565b60405180910390f35b3480156104ad57600080fd5b506104b66114d8565b6040516104c39190613463565b60405180910390f35b3480156104d857600080fd5b506104e16114f6565b6040516104ee91906135d4565b60405180910390f35b34801561050357600080fd5b5061050c6114fc565b005b34801561051a57600080fd5b506105236118de565b60405161053091906135d4565b60405180910390f35b34801561054557600080fd5b50610560600480360381019061055b9190612e31565b6118e4565b005b34801561056e57600080fd5b506105776118ee565b60405161058491906135d4565b60405180910390f35b34801561059957600080fd5b506105a26118f4565b6040516105af91906135d4565b60405180910390f35b6105d260048036038101906105cd9190612dca565b6118fa565b005b3480156105e057600080fd5b506105fb60048036038101906105f69190612e31565b611e4d565b6040516106099291906136fc565b60405180910390f35b34801561061e57600080fd5b50610627611fd5565b60405161063491906135d4565b60405180910390f35b34801561064957600080fd5b50610664600480360381019061065f9190612e31565b611fdb565b005b34801561067257600080fd5b5061068d60048036038101906106889190612ce4565b612063565b005b34801561069b57600080fd5b506106b660048036038101906106b19190612e31565b612129565b005b3480156106c457600080fd5b506106cd6121a7565b6040516106de9594939291906133ed565b60405180910390f35b8060008190555050565b6000806000739c3c9283d3e44854697cd22d3faa240cfb0328899050600080600760009054906101000a900473ffffffffffffffffffffffffffffffffffffffff1673ffffffffffffffffffffffffffffffffffffffff166397da6d3084303060008b6040518663ffffffff1660e01b815260040161077495949392919061331e565b6040805180830381600087803b15801561078d57600080fd5b505af11580156107a1573d6000803e3d6000fd5b505050506040513d601f19601f820116820180604052508101906107c59190612e96565b91509150818194509450505050915091565b6107df612a34565b600060046000848152602001908152602001600020604051806101800160405290816000820154815260200160018201805461081a906139d1565b80601f0160208091040260200160405190810160405280929190818152602001828054610846906139d1565b80156108935780601f1061086857610100808354040283529160200191610893565b820191906000526020600020905b81548152906001019060200180831161087657829003601f168201915b5050505050815260200160028201548152602001600382015481526020016004820160009054906101000a900460ff1660ff1660ff1681526020016005820154815260200160068201548152602001600782015481526020016008820160009054906101000a900473ffffffffffffffffffffffffffffffffffffffff1673ffffffffffffffffffffffffffffffffffffffff1673ffffffffffffffffffffffffffffffffffffffff16815260200160098201548152602001600a8201548152602001600b8201548152505090506109a46040518060400160405280600381526020017f69643a0000000000000000000000000000000000000000000000000000000000815250826000015161283a565b6109e76040518060400160405280600681526020017f656d61696c3a000000000000000000000000000000000000000000000000000081525082602001516128d6565b610a2a6040518060400160405280600981526020017f70617373776f72643a0000000000000000000000000000000000000000000000815250826040015161283a565b610a6d6040518060400160405280600781526020017f616d6f756e743a00000000000000000000000000000000000000000000000000815250826060015161283a565b610ab36040518060400160405280600781526020017f7374617475733a00000000000000000000000000000000000000000000000000815250826080015160ff1661283a565b80915050919050565b600060058281548110610af8577f4e487b7100000000000000000000000000000000000000000000000000000000600052603260045260246000fd5b90600052602060002090600c0201600b015490506000806000610b1a846106f1565b809350819450505060058581548110610b5c577f4e487b7100000000000000000000000000000000000000000000000000000000600052603260045260246000fd5b90600052602060002090600c020160030154831115610bd35760058581548110610baf577f4e487b7100000000000000000000000000000000000000000000000000000000600052603260045260246000fd5b90600052602060002090600c02016003015483610bcc91906138d0565b9050610bd8565b606490505b8260058681548110610c13577f4e487b7100000000000000000000000000000000000000000000000000000000600052603260045260246000fd5b90600052602060002090600c0201600a0181905550600060058681548110610c64577f4e487b7100000000000000000000000000000000000000000000000000000000600052603260045260246000fd5b90600052602060002090600c0201600b01819055508060058681548110610cb4577f4e487b7100000000000000000000000000000000000000000000000000000000600052603260045260246000fd5b90600052602060002090600c0201600601819055508060086000828254610cdb919061387a565b92505081905550610ceb83611fdb565b5050505050565b60025481565b4260028190555060005b6005805490508110156110d757600060058281548110610d4b577f4e487b7100000000000000000000000000000000000000000000000000000000600052603260045260246000fd5b90600052602060002090600c020160040160009054906101000a900460ff1660ff1614610d77576110c4565b60015460058281548110610db4577f4e487b7100000000000000000000000000000000000000000000000000000000600052603260045260246000fd5b90600052602060002090600c02016005015442610dd191906138d0565b11156110c357610de081610abc565b600060058281548110610e1c577f4e487b7100000000000000000000000000000000000000000000000000000000600052603260045260246000fd5b90600052602060002090600c020160080160009054906101000a900473ffffffffffffffffffffffffffffffffffffffff1673ffffffffffffffffffffffffffffffffffffffff1660058381548110610e9e577f4e487b7100000000000000000000000000000000000000000000000000000000600052603260045260246000fd5b90600052602060002090600c020160030154604051610ebc90613309565b60006040518083038185875af1925050503d8060008114610ef9576040519150601f19603f3d011682016040523d82523d6000602084013e610efe565b606091505b50509050600060058381548110610f3e577f4e487b7100000000000000000000000000000000000000000000000000000000600052603260045260246000fd5b90600052602060002090600c0201905060058381548110610f88577f4e487b7100000000000000000000000000000000000000000000000000000000600052603260045260246000fd5b90600052602060002090600c02016006015460058481548110610fd4577f4e487b7100000000000000000000000000000000000000000000000000000000600052603260045260246000fd5b90600052602060002090600c020160070181905550600360058481548110611025577f4e487b7100000000000000000000000000000000000000000000000000000000600052603260045260246000fd5b90600052602060002090600c020160040160006101000a81548160ff021916908360ff16021790555060058381548110611088577f4e487b7100000000000000000000000000000000000000000000000000000000600052603260045260246000fd5b90600052602060002090600c020160060154816007018190555060038160040160006101000a81548160ff021916908360ff16021790555050505b5b80806110cf90613a34565b915050610d02565b505050565b600060058281548110611118577f4e487b7100000000000000000000000000000000000000000000000000000000600052603260045260246000fd5b90600052602060002090600c0201600a01549050919050565b6000600354905090565b61114481612129565b60008061115083611e4d565b80925081935050508060058581548110611193577f4e487b7100000000000000000000000000000000000000000000000000000000600052603260045260246000fd5b90600052602060002090600c0201600b018190555050505050565b60006060600054600254426111c391906138d0565b1191509250929050565b600760009054906101000a900473ffffffffffffffffffffffffffffffffffffffff1681565b6005818154811061120357600080fd5b90600052602060002090600c020160009150905080600001549080600101805461122c906139d1565b80601f0160208091040260200160405190810160405280929190818152602001828054611258906139d1565b80156112a55780601f1061127a576101008083540402835291602001916112a5565b820191906000526020600020905b81548152906001019060200180831161128857829003601f168201915b5050505050908060020154908060030154908060040160009054906101000a900460ff16908060050154908060060154908060070154908060080160009054906101000a900473ffffffffffffffffffffffffffffffffffffffff169080600901549080600a01549080600b015490508c565b600060058281548110611354577f4e487b7100000000000000000000000000000000000000000000000000000000600052603260045260246000fd5b90600052602060002090600c0201600b01549050919050565b600080600460008581526020019081526020016000209050806002015483146113cb576040517f08c379a00000000000000000000000000000000000000000000000000000000081526004016113c290613552565b60405180910390fd5b60008160040160009054906101000a900460ff1660ff1614611422576040517f08c379a000000000000000000000000000000000000000000000000000000000815260040161141990613592565b60405180910390fd5b60008160030154905061143485610abc565b60028260040160006101000a81548160ff021916908360ff1602179055508160060154826007018190555060008673ffffffffffffffffffffffffffffffffffffffff168260405161148590613309565b60006040518083038185875af1925050503d80600081146114c2576040519150601f19603f3d011682016040523d82523d6000602084013e6114c7565b606091505b505090508093505050509392505050565b600080600054600254426114ec91906138d0565b1190508091505090565b60005481565b4260028190555060005b6005805490508110156118db5760006005828154811061154f577f4e487b7100000000000000000000000000000000000000000000000000000000600052603260045260246000fd5b90600052602060002090600c020160040160009054906101000a900460ff1660ff161461157b576118c8565b600154600582815481106115b8577f4e487b7100000000000000000000000000000000000000000000000000000000600052603260045260246000fd5b90600052602060002090600c020160050154426115d591906138d0565b11156118c7576115e481610abc565b600060058281548110611620577f4e487b7100000000000000000000000000000000000000000000000000000000600052603260045260246000fd5b90600052602060002090600c020160080160009054906101000a900473ffffffffffffffffffffffffffffffffffffffff1673ffffffffffffffffffffffffffffffffffffffff16600583815481106116a2577f4e487b7100000000000000000000000000000000000000000000000000000000600052603260045260246000fd5b90600052602060002090600c0201600301546040516116c090613309565b60006040518083038185875af1925050503d80600081146116fd576040519150601f19603f3d011682016040523d82523d6000602084013e611702565b606091505b50509050600060058381548110611742577f4e487b7100000000000000000000000000000000000000000000000000000000600052603260045260246000fd5b90600052602060002090600c020190506005838154811061178c577f4e487b7100000000000000000000000000000000000000000000000000000000600052603260045260246000fd5b90600052602060002090600c020160060154600584815481106117d8577f4e487b7100000000000000000000000000000000000000000000000000000000600052603260045260246000fd5b90600052602060002090600c020160070181905550600360058481548110611829577f4e487b7100000000000000000000000000000000000000000000000000000000600052603260045260246000fd5b90600052602060002090600c020160040160006101000a81548160ff021916908360ff1602179055506005838154811061188c577f4e487b7100000000000000000000000000000000000000000000000000000000600052603260045260246000fd5b90600052602060002090600c020160060154816007018190555060038160040160006101000a81548160ff021916908360ff16021790555050505b5b80806118d390613a34565b915050611506565b50565b60015481565b8060018190555050565b60035481565b60095481565b80341461193c576040517f08c379a000000000000000000000000000000000000000000000000000000000815260040161193390613572565b60405180910390fd5b600060035490506000604051806101800160405280838152602001868152602001858152602001848152602001600060ff16815260200142815260200160008152602001600081526020013373ffffffffffffffffffffffffffffffffffffffff16815260200160008152602001600081526020016000815250905060058190806001815401808255809150506001900390600052602060002090600c0201600090919091909150600082015181600001556020820151816001019080519060200190611a0a929190612aae565b50604082015181600201556060820151816003015560808201518160040160006101000a81548160ff021916908360ff16021790555060a0820151816005015560c0820151816006015560e082015181600701556101008201518160080160006101000a81548173ffffffffffffffffffffffffffffffffffffffff021916908373ffffffffffffffffffffffffffffffffffffffff160217905550610120820151816009015561014082015181600a015561016082015181600b0155505060056001600580549050611add91906138d0565b81548110611b14577f4e487b7100000000000000000000000000000000000000000000000000000000600052603260045260246000fd5b90600052602060002090600c020160046000848152602001908152602001600020600082015481600001556001820181600101908054611b53906139d1565b611b5e929190612b34565b5060028201548160020155600382015481600301556004820160009054906101000a900460ff168160040160006101000a81548160ff021916908360ff1602179055506005820154816005015560068201548160060155600782015481600701556008820160009054906101000a900473ffffffffffffffffffffffffffffffffffffffff168160080160006101000a81548173ffffffffffffffffffffffffffffffffffffffff021916908373ffffffffffffffffffffffffffffffffffffffff16021790555060098201548160090155600a82015481600a0155600b82015481600b015590505060036000815480929190611c5a90613a34565b9190505550600660003373ffffffffffffffffffffffffffffffffffffffff1673ffffffffffffffffffffffffffffffffffffffff168152602001908152602001600020829080600181540180825580915050600190039060005260206000200160009091909190915055611d036040518060400160405280600f81526020017f5061796d656e7420637265617465640000000000000000000000000000000000815250612972565b611d426040518060400160405280600781526020017f656d61696c203a00000000000000000000000000000000000000000000000000815250866128d6565b611d816040518060400160405280600e81526020017f70617373776f726420686173683a0000000000000000000000000000000000008152508561283a565b611dc06040518060400160405280600781526020017f616d6f756e743a000000000000000000000000000000000000000000000000008152508461283a565b611dff6040518060400160405280600381526020017f69643a00000000000000000000000000000000000000000000000000000000008152508361283a565b611e09823461113b565b7f7515c0990405997c6ec5939a07e35d08ab3dd03fff72f216d3fbf4064c4080c482868686604051611e3e94939291906135ef565b60405180910390a15050505050565b6000806000739c3c9283d3e44854697cd22d3faa240cfb03288990508073ffffffffffffffffffffffffffffffffffffffff1663095ea7b373f5bce5077908a1b7370b9ae04adc565ebd643966866040518363ffffffff1660e01b8152600401611eb89291906133c4565b602060405180830381600087803b158015611ed257600080fd5b505af1158015611ee6573d6000803e3d6000fd5b505050506040513d601f19601f82011682018060405250810190611f0a9190612d5c565b50600080600760009054906101000a900473ffffffffffffffffffffffffffffffffffffffff1673ffffffffffffffffffffffffffffffffffffffff166302b9446c8430308a60006040518663ffffffff1660e01b8152600401611f72959493929190613371565b6040805180830381600087803b158015611f8b57600080fd5b505af1158015611f9f573d6000803e3d6000fd5b505050506040513d601f19601f82011682018060405250810190611fc39190612e96565b91509150818194509450505050915091565b60085481565b6000739c3c9283d3e44854697cd22d3faa240cfb03288990508073ffffffffffffffffffffffffffffffffffffffff16632e1a7d4d836040518263ffffffff1660e01b815260040161202d91906135d4565b600060405180830381600087803b15801561204757600080fd5b505af115801561205b573d6000803e3d6000fd5b505050505050565b80600760006101000a81548173ffffffffffffffffffffffffffffffffffffffff021916908373ffffffffffffffffffffffffffffffffffffffff160217905550600760009054906101000a900473ffffffffffffffffffffffffffffffffffffffff1673ffffffffffffffffffffffffffffffffffffffff1663aee4d1b26040518163ffffffff1660e01b8152600401600060405180830381600087803b15801561210e57600080fd5b505af1158015612122573d6000803e3d6000fd5b5050505050565b6000739c3c9283d3e44854697cd22d3faa240cfb03288990508073ffffffffffffffffffffffffffffffffffffffff1663d0e30db0836040518263ffffffff1660e01b81526004016000604051808303818588803b15801561218a57600080fd5b505af115801561219e573d6000803e3d6000fd5b50505050505050565b606080606080606060003390506000600660008373ffffffffffffffffffffffffffffffffffffffff1673ffffffffffffffffffffffffffffffffffffffff16815260200190815260200160002080549050905060008167ffffffffffffffff81111561223d577f4e487b7100000000000000000000000000000000000000000000000000000000600052604160045260246000fd5b60405190808252806020026020018201604052801561227057816020015b606081526020019060019003908161225b5790505b50905060008267ffffffffffffffff8111156122b5577f4e487b7100000000000000000000000000000000000000000000000000000000600052604160045260246000fd5b6040519080825280602002602001820160405280156122e35781602001602082028036833780820191505090505b50905060008367ffffffffffffffff811115612328577f4e487b7100000000000000000000000000000000000000000000000000000000600052604160045260246000fd5b6040519080825280602002602001820160405280156123565781602001602082028036833780820191505090505b50905060008467ffffffffffffffff81111561239b577f4e487b7100000000000000000000000000000000000000000000000000000000600052604160045260246000fd5b6040519080825280602002602001820160405280156123c95781602001602082028036833780820191505090505b50905060008567ffffffffffffffff81111561240e577f4e487b7100000000000000000000000000000000000000000000000000000000600052604160045260246000fd5b60405190808252806020026020018201604052801561243c5781602001602082028036833780820191505090505b50905060005b600660008973ffffffffffffffffffffffffffffffffffffffff1673ffffffffffffffffffffffffffffffffffffffff1681526020019081526020016000208054905081101561281c57600060046000600660008c73ffffffffffffffffffffffffffffffffffffffff1673ffffffffffffffffffffffffffffffffffffffff1681526020019081526020016000208481548110612509577f4e487b7100000000000000000000000000000000000000000000000000000000600052603260045260246000fd5b906000526020600020015481526020019081526020016000206040518061018001604052908160008201548152602001600182018054612548906139d1565b80601f0160208091040260200160405190810160405280929190818152602001828054612574906139d1565b80156125c15780601f10612596576101008083540402835291602001916125c1565b820191906000526020600020905b8154815290600101906020018083116125a457829003601f168201915b5050505050815260200160028201548152602001600382015481526020016004820160009054906101000a900460ff1660ff1660ff1681526020016005820154815260200160068201548152602001600782015481526020016008820160009054906101000a900473ffffffffffffffffffffffffffffffffffffffff1673ffffffffffffffffffffffffffffffffffffffff1673ffffffffffffffffffffffffffffffffffffffff16815260200160098201548152602001600a8201548152602001600b82015481525050905080602001518783815181106126cd577f4e487b7100000000000000000000000000000000000000000000000000000000600052603260045260246000fd5b60200260200101819052508060600151868381518110612716577f4e487b7100000000000000000000000000000000000000000000000000000000600052603260045260246000fd5b6020026020010181815250508060800151858381518110612760577f4e487b7100000000000000000000000000000000000000000000000000000000600052603260045260246000fd5b602002602001019060ff16908160ff16815250508060e001518483815181106127b2577f4e487b7100000000000000000000000000000000000000000000000000000000600052603260045260246000fd5b6020026020010181815250508060c001518383815181106127fc577f4e487b7100000000000000000000000000000000000000000000000000000000600052603260045260246000fd5b60200260200101818152505050808061281490613a34565b915050612442565b5084848484849b509b509b509b509b50505050505050509091929394565b6128d28282604051602401612850929190613522565b6040516020818303038152906040527f9710a9d0000000000000000000000000000000000000000000000000000000007bffffffffffffffffffffffffffffffffffffffffffffffffffffffff19166020820180517bffffffffffffffffffffffffffffffffffffffffffffffffffffffff8381831617835250505050612a0b565b5050565b61296e82826040516024016128ec9291906134eb565b6040516020818303038152906040527f4b5c4277000000000000000000000000000000000000000000000000000000007bffffffffffffffffffffffffffffffffffffffffffffffffffffffff19166020820180517bffffffffffffffffffffffffffffffffffffffffffffffffffffffff8381831617835250505050612a0b565b5050565b612a088160405160240161298691906134c9565b6040516020818303038152906040527f41304fac000000000000000000000000000000000000000000000000000000007bffffffffffffffffffffffffffffffffffffffffffffffffffffffff19166020820180517bffffffffffffffffffffffffffffffffffffffffffffffffffffffff8381831617835250505050612a0b565b50565b60008151905060006a636f6e736f6c652e6c6f679050602083016000808483855afa5050505050565b60405180610180016040528060008152602001606081526020016000815260200160008152602001600060ff168152602001600081526020016000815260200160008152602001600073ffffffffffffffffffffffffffffffffffffffff1681526020016000815260200160008152602001600081525090565b828054612aba906139d1565b90600052602060002090601f016020900481019282612adc5760008555612b23565b82601f10612af557805160ff1916838001178555612b23565b82800160010185558215612b23579182015b82811115612b22578251825591602001919060010190612b07565b5b509050612b309190612bc1565b5090565b828054612b40906139d1565b90600052602060002090601f016020900481019282612b625760008555612bb0565b82601f10612b735780548555612bb0565b82800160010185558215612bb057600052602060002091601f016020900482015b82811115612baf578254825591600101919060010190612b94565b5b509050612bbd9190612bc1565b5090565b5b80821115612bda576000816000905550600101612bc2565b5090565b6000612bf1612bec8461374a565b613725565b905082815260208101848484011115612c0957600080fd5b612c1484828561398f565b509392505050565b600081359050612c2b81613bbf565b92915050565b600081519050612c4081613bd6565b92915050565b60008083601f840112612c5857600080fd5b8235905067ffffffffffffffff811115612c7157600080fd5b602083019150836001820283011115612c8957600080fd5b9250929050565b600082601f830112612ca157600080fd5b8135612cb1848260208601612bde565b91505092915050565b600081359050612cc981613bed565b92915050565b600081519050612cde81613bed565b92915050565b600060208284031215612cf657600080fd5b6000612d0484828501612c1c565b91505092915050565b600080600060608486031215612d2257600080fd5b6000612d3086828701612c1c565b9350506020612d4186828701612cba565b9250506040612d5286828701612cba565b9150509250925092565b600060208284031215612d6e57600080fd5b6000612d7c84828501612c31565b91505092915050565b60008060208385031215612d9857600080fd5b600083013567ffffffffffffffff811115612db257600080fd5b612dbe85828601612c46565b92509250509250929050565b600080600060608486031215612ddf57600080fd5b600084013567ffffffffffffffff811115612df957600080fd5b612e0586828701612c90565b9350506020612e1686828701612cba565b9250506040612e2786828701612cba565b9150509250925092565b600060208284031215612e4357600080fd5b6000612e5184828501612cba565b91505092915050565b60008060408385031215612e6d57600080fd5b6000612e7b85828601612cba565b9250506020612e8c85828601612cba565b9150509250929050565b60008060408385031215612ea957600080fd5b6000612eb785828601612ccf565b9250506020612ec885828601612ccf565b9150509250929050565b6000612ede83836130cb565b905092915050565b6000612ef283836132cd565b60208301905092915050565b6000612f0a83836132eb565b60208301905092915050565b612f1f81613904565b82525050565b612f2e81613904565b82525050565b6000612f3f826137ab565b612f498185613809565b935083602082028501612f5b8561377b565b8060005b85811015612f975784840389528151612f788582612ed2565b9450612f83836137e2565b925060208a01995050600181019050612f5f565b50829750879550505050505092915050565b6000612fb4826137b6565b612fbe818561381a565b9350612fc98361378b565b8060005b83811015612ffa578151612fe18882612ee6565b9750612fec836137ef565b925050600181019050612fcd565b5085935050505092915050565b6000613012826137c1565b61301c818561382b565b93506130278361379b565b8060005b8381101561305857815161303f8882612efe565b975061304a836137fc565b92505060018101905061302b565b5085935050505092915050565b61306e81613916565b82525050565b600061307f826137cc565b613089818561383c565b935061309981856020860161399e565b6130a281613b0a565b840191505092915050565b6130b681613959565b82525050565b6130c58161397d565b82525050565b60006130d6826137d7565b6130e08185613858565b93506130f081856020860161399e565b6130f981613b0a565b840191505092915050565b600061310f826137d7565b6131198185613869565b935061312981856020860161399e565b61313281613b0a565b840191505092915050565b600061314a601283613869565b915061315582613b1b565b602082019050919050565b600061316d60008361384d565b915061317882613b44565b600082019050919050565b6000613190602983613869565b915061319b82613b47565b604082019050919050565b60006131b3601683613869565b91506131be82613b96565b602082019050919050565b6000610180830160008301516131e260008601826132cd565b50602083015184820360208601526131fa82826130cb565b915050604083015161320f60408601826132cd565b50606083015161322260608601826132cd565b50608083015161323560808601826132eb565b5060a083015161324860a08601826132cd565b5060c083015161325b60c08601826132cd565b5060e083015161326e60e08601826132cd565b50610100830151613283610100860182612f16565b506101208301516132986101208601826132cd565b506101408301516132ad6101408601826132cd565b506101608301516132c26101608601826132cd565b508091505092915050565b6132d681613942565b82525050565b6132e581613942565b82525050565b6132f48161394c565b82525050565b6133038161394c565b82525050565b600061331482613160565b9150819050919050565b600060a0820190506133336000830188612f25565b6133406020830187612f25565b61334d6040830186612f25565b61335a60608301856130bc565b61336760808301846132dc565b9695505050505050565b600060a0820190506133866000830188612f25565b6133936020830187612f25565b6133a06040830186612f25565b6133ad60608301856132dc565b6133ba60808301846130bc565b9695505050505050565b60006040820190506133d96000830185612f25565b6133e660208301846132dc565b9392505050565b600060a08201905081810360008301526134078188612f34565b9050818103602083015261341b8187612fa9565b9050818103604083015261342f8186613007565b905081810360608301526134438185612fa9565b905081810360808301526134578184612fa9565b90509695505050505050565b60006020820190506134786000830184613065565b92915050565b60006040820190506134936000830185613065565b81810360208301526134a58184613074565b90509392505050565b60006020820190506134c360008301846130ad565b92915050565b600060208201905081810360008301526134e38184613104565b905092915050565b600060408201905081810360008301526135058185613104565b905081810360208301526135198184613104565b90509392505050565b6000604082019050818103600083015261353c8185613104565b905061354b60208301846132dc565b9392505050565b6000602082019050818103600083015261356b8161313d565b9050919050565b6000602082019050818103600083015261358b81613183565b9050919050565b600060208201905081810360008301526135ab816131a6565b9050919050565b600060208201905081810360008301526135cc81846131c9565b905092915050565b60006020820190506135e960008301846132dc565b92915050565b600060808201905061360460008301876132dc565b81810360208301526136168186613104565b905061362560408301856132dc565b61363260608301846132dc565b95945050505050565b600061018082019050613651600083018f6132dc565b8181036020830152613663818e613104565b9050613672604083018d6132dc565b61367f606083018c6132dc565b61368c608083018b6132fa565b61369960a083018a6132dc565b6136a660c08301896132dc565b6136b360e08301886132dc565b6136c1610100830187612f25565b6136cf6101208301866132dc565b6136dd6101408301856132dc565b6136eb6101608301846132dc565b9d9c50505050505050505050505050565b600060408201905061371160008301856132dc565b61371e60208301846132dc565b9392505050565b600061372f613740565b905061373b8282613a03565b919050565b6000604051905090565b600067ffffffffffffffff82111561376557613764613adb565b5b61376e82613b0a565b9050602081019050919050565b6000819050602082019050919050565b6000819050602082019050919050565b6000819050602082019050919050565b600081519050919050565b600081519050919050565b600081519050919050565b600081519050919050565b600081519050919050565b6000602082019050919050565b6000602082019050919050565b6000602082019050919050565b600082825260208201905092915050565b600082825260208201905092915050565b600082825260208201905092915050565b600082825260208201905092915050565b600081905092915050565b600082825260208201905092915050565b600082825260208201905092915050565b600061388582613942565b915061389083613942565b9250827fffffffffffffffffffffffffffffffffffffffffffffffffffffffffffffffff038211156138c5576138c4613a7d565b5b828201905092915050565b60006138db82613942565b91506138e683613942565b9250828210156138f9576138f8613a7d565b5b828203905092915050565b600061390f82613922565b9050919050565b60008115159050919050565b600073ffffffffffffffffffffffffffffffffffffffff82169050919050565b6000819050919050565b600060ff82169050919050565b60006139648261396b565b9050919050565b600061397682613922565b9050919050565b600061398882613942565b9050919050565b82818337600083830152505050565b60005b838110156139bc5780820151818401526020810190506139a1565b838111156139cb576000848401525b50505050565b600060028204905060018216806139e957607f821691505b602082108114156139fd576139fc613aac565b5b50919050565b613a0c82613b0a565b810181811067ffffffffffffffff82111715613a2b57613a2a613adb565b5b80604052505050565b6000613a3f82613942565b91507fffffffffffffffffffffffffffffffffffffffffffffffffffffffffffffffff821415613a7257613a71613a7d565b5b600182019050919050565b7f4e487b7100000000000000000000000000000000000000000000000000000000600052601160045260246000fd5b7f4e487b7100000000000000000000000000000000000000000000000000000000600052602260045260246000fd5b7f4e487b7100000000000000000000000000000000000000000000000000000000600052604160045260246000fd5b6000601f19601f8301169050919050565b7f496e636f72726563742050617373776f72640000000000000000000000000000600082015250565b50565b7f416d6f756e7420676976656e20646966666572732066726f6d20616d6f756e7460008201527f20696e74656e6465640000000000000000000000000000000000000000000000602082015250565b7f46756e647320616c72656164792072656465656d656400000000000000000000600082015250565b613bc881613904565b8114613bd357600080fd5b50565b613bdf81613916565b8114613bea57600080fd5b50565b613bf681613942565b8114613c0157600080fd5b5056fea2646970667358221220b506c29069db92fc47c5cef1c996166a85b8b3f3cd76782a0f3291a8beeef12d64736f6c63430008040033",
  "linkReferences": {},
  "deployedLinkReferences": {}
}