{
  "_format": "hh-sol-artifact-1",
  "contractName": "MagicPay",
  "sourceName": "contracts/MagicPay.sol",
  "abi": [
    {
      "inputs": [],
      "stateMutability": "nonpayable",
      "type": "constructor"
    },
    {
      "anonymous": false,
      "inputs": [
        {
          "indexed": false,
          "internalType": "uint256",
          "name": "id",
          "type": "uint256"
        },
        {
          "indexed": false,
          "internalType": "string",
          "name": "email",
          "type": "string"
        },
        {
          "indexed": false,
          "internalType": "uint256",
          "name": "password",
          "type": "uint256"
        },
        {
          "indexed": false,
          "internalType": "uint256",
          "name": "amount",
          "type": "uint256"
        }
      ],
      "name": "PaymentCreated",
      "type": "event"
    },
    {
      "inputs": [
        {
          "internalType": "bytes",
          "name": "",
          "type": "bytes"
        }
      ],
      "name": "checkUpkeep",
      "outputs": [
        {
          "internalType": "bool",
          "name": "upkeepNeeded",
          "type": "bool"
        },
        {
          "internalType": "bytes",
          "name": "",
          "type": "bytes"
        }
      ],
      "stateMutability": "nonpayable",
      "type": "function"
    },
    {
      "inputs": [],
      "name": "checkValidityUpkeep",
      "outputs": [
        {
          "internalType": "bool",
          "name": "",
          "type": "bool"
        }
      ],
      "stateMutability": "view",
      "type": "function"
    },
    {
      "inputs": [
        {
          "internalType": "string",
          "name": "email",
          "type": "string"
        },
        {
          "internalType": "uint256",
          "name": "password",
          "type": "uint256"
        },
        {
          "internalType": "uint256",
          "name": "amount",
          "type": "uint256"
        }
      ],
      "name": "createPayment",
      "outputs": [],
      "stateMutability": "payable",
      "type": "function"
    },
    {
      "inputs": [],
      "name": "getId",
      "outputs": [
        {
          "internalType": "uint256",
          "name": "",
          "type": "uint256"
        }
      ],
      "stateMutability": "view",
      "type": "function"
    },
    {
      "inputs": [
        {
          "internalType": "uint256",
          "name": "_id",
          "type": "uint256"
        }
      ],
      "name": "getPayment",
      "outputs": [
        {
          "components": [
            {
              "internalType": "uint256",
              "name": "id",
              "type": "uint256"
            },
            {
              "internalType": "string",
              "name": "email",
              "type": "string"
            },
            {
              "internalType": "uint256",
              "name": "password",
              "type": "uint256"
            },
            {
              "internalType": "uint256",
              "name": "amount",
              "type": "uint256"
            },
            {
              "internalType": "uint8",
              "name": "status",
              "type": "uint8"
            },
            {
              "internalType": "uint256",
              "name": "creationTimestamp",
              "type": "uint256"
            },
            {
              "internalType": "uint256",
              "name": "interestEarned",
              "type": "uint256"
            },
            {
              "internalType": "uint256",
              "name": "klima",
              "type": "uint256"
            },
            {
              "internalType": "address",
              "name": "creator",
              "type": "address"
            }
          ],
          "internalType": "struct MagicPay.Payment",
          "name": "",
          "type": "tuple"
        }
      ],
      "stateMutability": "view",
      "type": "function"
    },
    {
      "inputs": [],
      "name": "getPaymentsForAddress",
      "outputs": [
        {
          "internalType": "string[]",
          "name": "",
          "type": "string[]"
        },
        {
          "internalType": "uint256[]",
          "name": "",
          "type": "uint256[]"
        },
        {
          "internalType": "uint8[]",
          "name": "",
          "type": "uint8[]"
        }
      ],
      "stateMutability": "view",
      "type": "function"
    },
    {
      "inputs": [],
      "name": "id",
      "outputs": [
        {
          "internalType": "uint256",
          "name": "",
          "type": "uint256"
        }
      ],
      "stateMutability": "view",
      "type": "function"
    },
    {
      "inputs": [],
      "name": "interval",
      "outputs": [
        {
          "internalType": "uint256",
          "name": "",
          "type": "uint256"
        }
      ],
      "stateMutability": "view",
      "type": "function"
    },
    {
      "inputs": [],
      "name": "lastTimeStamp",
      "outputs": [
        {
          "internalType": "uint256",
          "name": "",
          "type": "uint256"
        }
      ],
      "stateMutability": "view",
      "type": "function"
    },
    {
      "inputs": [
        {
          "internalType": "uint256",
          "name": "",
          "type": "uint256"
        }
      ],
      "name": "payments",
      "outputs": [
        {
          "internalType": "uint256",
          "name": "id",
          "type": "uint256"
        },
        {
          "internalType": "string",
          "name": "email",
          "type": "string"
        },
        {
          "internalType": "uint256",
          "name": "password",
          "type": "uint256"
        },
        {
          "internalType": "uint256",
          "name": "amount",
          "type": "uint256"
        },
        {
          "internalType": "uint8",
          "name": "status",
          "type": "uint8"
        },
        {
          "internalType": "uint256",
          "name": "creationTimestamp",
          "type": "uint256"
        },
        {
          "internalType": "uint256",
          "name": "interestEarned",
          "type": "uint256"
        },
        {
          "internalType": "uint256",
          "name": "klima",
          "type": "uint256"
        },
        {
          "internalType": "address",
          "name": "creator",
          "type": "address"
        }
      ],
      "stateMutability": "view",
      "type": "function"
    },
    {
      "inputs": [
        {
          "internalType": "bytes",
          "name": "",
          "type": "bytes"
        }
      ],
      "name": "performUpkeep",
      "outputs": [],
      "stateMutability": "nonpayable",
      "type": "function"
    },
    {
      "inputs": [],
      "name": "performUpkeep2",
      "outputs": [],
      "stateMutability": "nonpayable",
      "type": "function"
    },
    {
      "inputs": [
        {
          "internalType": "address",
          "name": "receiver",
          "type": "address"
        },
        {
          "internalType": "uint256",
          "name": "_id",
          "type": "uint256"
        },
        {
          "internalType": "uint256",
          "name": "password",
          "type": "uint256"
        }
      ],
      "name": "sendPayment",
      "outputs": [
        {
          "internalType": "bool",
          "name": "",
          "type": "bool"
        }
      ],
      "stateMutability": "nonpayable",
      "type": "function"
    },
    {
      "inputs": [
        {
          "internalType": "uint256",
          "name": "_interval",
          "type": "uint256"
        }
      ],
      "name": "setInterval",
      "outputs": [],
      "stateMutability": "nonpayable",
      "type": "function"
    },
    {
      "inputs": [
        {
          "internalType": "uint256",
          "name": "_waitInterval",
          "type": "uint256"
        }
      ],
      "name": "setWaitInterval",
      "outputs": [],
      "stateMutability": "nonpayable",
      "type": "function"
    },
    {
      "inputs": [],
      "name": "waitInterval",
      "outputs": [
        {
          "internalType": "uint256",
          "name": "",
          "type": "uint256"
        }
      ],
      "stateMutability": "view",
      "type": "function"
    }
  ],
  "bytecode": "0x608060405261012c600055607860015534801561001b57600080fd5b5042600281905550612900806100326000396000f3fe6080604052600436106100f35760003560e01c80638f9757a31161008a578063976b54b511610059578063976b54b514610335578063af640d0f1461035e578063b6555f9f14610389578063f2234713146103a5576100f3565b80638f9757a31461029d578063947a36fb146102c857806395d3b84e146102f35780639640110e1461030a576100f3565b80635d1ca631116100c65780635d1ca631146101b25780636e04ff0d146101dd57806387d817891461021b5780638d82e72f14610260576100f3565b806322a90082146100f85780633280a836146101215780633f3b3b271461015e5780634585e33b14610189575b600080fd5b34801561010457600080fd5b5061011f600480360381019061011a9190611dd9565b6103d2565b005b34801561012d57600080fd5b5061014860048036038101906101439190611dd9565b6103dc565b6040516101559190612371565b60405180910390f35b34801561016a57600080fd5b506101736106a3565b6040516101809190612393565b60405180910390f35b34801561019557600080fd5b506101b060048036038101906101ab9190611d2d565b6106a9565b005b3480156101be57600080fd5b506101c7610938565b6040516101d49190612393565b60405180910390f35b3480156101e957600080fd5b5061020460048036038101906101ff9190611d2d565b610942565b604051610212929190612258565b60405180910390f35b34801561022757600080fd5b50610242600480360381019061023d9190611dd9565b610961565b604051610257999897969594939291906123fa565b60405180910390f35b34801561026c57600080fd5b5061028760048036038101906102829190611cde565b610a74565b604051610294919061223d565b60405180910390f35b3480156102a957600080fd5b506102b2610bc9565b6040516102bf919061223d565b60405180910390f35b3480156102d457600080fd5b506102dd610be7565b6040516102ea9190612393565b60405180910390f35b3480156102ff57600080fd5b50610308610bed565b005b34801561031657600080fd5b5061031f610e7a565b60405161032c9190612393565b60405180910390f35b34801561034157600080fd5b5061035c60048036038101906103579190611dd9565b610e80565b005b34801561036a57600080fd5b50610373610e8a565b6040516103809190612393565b60405180910390f35b6103a3600480360381019061039e9190611d72565b610e90565b005b3480156103b157600080fd5b506103ba611385565b6040516103c9939291906121f1565b60405180910390f35b8060008190555050565b6103e4611a6d565b600060046000848152602001908152602001600020604051806101200160405290816000820154815260200160018201805461041f906126ae565b80601f016020809104026020016040519081016040528092919081815260200182805461044b906126ae565b80156104985780601f1061046d57610100808354040283529160200191610498565b820191906000526020600020905b81548152906001019060200180831161047b57829003601f168201915b5050505050815260200160028201548152602001600382015481526020016004820160009054906101000a900460ff1660ff1660ff1681526020016005820154815260200160068201548152602001600782015481526020016008820160009054906101000a900473ffffffffffffffffffffffffffffffffffffffff1673ffffffffffffffffffffffffffffffffffffffff1673ffffffffffffffffffffffffffffffffffffffff1681525050905061058b6040518060400160405280600381526020017f69643a00000000000000000000000000000000000000000000000000000000008152508260000151611873565b6105ce6040518060400160405280600681526020017f656d61696c3a0000000000000000000000000000000000000000000000000000815250826020015161190f565b6106116040518060400160405280600981526020017f70617373776f72643a00000000000000000000000000000000000000000000008152508260400151611873565b6106546040518060400160405280600781526020017f616d6f756e743a000000000000000000000000000000000000000000000000008152508260600151611873565b61069a6040518060400160405280600781526020017f7374617475733a00000000000000000000000000000000000000000000000000815250826080015160ff16611873565b80915050919050565b60025481565b4260028190555060005b600580549050811015610933576000600582815481106106fc577f4e487b7100000000000000000000000000000000000000000000000000000000600052603260045260246000fd5b906000526020600020906009020160040160009054906101000a900460ff1660ff161461072857610920565b60015460058281548110610765577f4e487b7100000000000000000000000000000000000000000000000000000000600052603260045260246000fd5b9060005260206000209060090201600501544261078291906125e3565b111561091f576000600582815481106107c4577f4e487b7100000000000000000000000000000000000000000000000000000000600052603260045260246000fd5b906000526020600020906009020160080160009054906101000a900473ffffffffffffffffffffffffffffffffffffffff1673ffffffffffffffffffffffffffffffffffffffff1660058381548110610846577f4e487b7100000000000000000000000000000000000000000000000000000000600052603260045260246000fd5b906000526020600020906009020160030154604051610864906121dc565b60006040518083038185875af1925050503d80600081146108a1576040519150601f19603f3d011682016040523d82523d6000602084013e6108a6565b606091505b5050905060011515811515141561091d576001600583815481106108f3577f4e487b7100000000000000000000000000000000000000000000000000000000600052603260045260246000fd5b906000526020600020906009020160040160006101000a81548160ff021916908360ff1602179055505b505b5b808061092b90612711565b9150506106b3565b505050565b6000600354905090565b600060606000546002544261095791906125e3565b1191509250929050565b6005818154811061097157600080fd5b906000526020600020906009020160009150905080600001549080600101805461099a906126ae565b80601f01602080910402602001604051908101604052809291908181526020018280546109c6906126ae565b8015610a135780601f106109e857610100808354040283529160200191610a13565b820191906000526020600020905b8154815290600101906020018083116109f657829003601f168201915b5050505050908060020154908060030154908060040160009054906101000a900460ff16908060050154908060060154908060070154908060080160009054906101000a900473ffffffffffffffffffffffffffffffffffffffff16905089565b60008060046000858152602001908152602001600020905080600201548314610ad2576040517f08c379a0000000000000000000000000000000000000000000000000000000008152600401610ac990612311565b60405180910390fd5b60008160040160009054906101000a900460ff1660ff1614610b29576040517f08c379a0000000000000000000000000000000000000000000000000000000008152600401610b2090612351565b60405180910390fd5b60008160030154905060008673ffffffffffffffffffffffffffffffffffffffff1682604051610b58906121dc565b60006040518083038185875af1925050503d8060008114610b95576040519150601f19603f3d011682016040523d82523d6000602084013e610b9a565b606091505b5050905060028360040160006101000a81548160ff021916908360ff1602179055508093505050509392505050565b60008060005460025442610bdd91906125e3565b1190508091505090565b60005481565b4260028190555060005b600580549050811015610e7757600060058281548110610c40577f4e487b7100000000000000000000000000000000000000000000000000000000600052603260045260246000fd5b906000526020600020906009020160040160009054906101000a900460ff1660ff1614610c6c57610e64565b60015460058281548110610ca9577f4e487b7100000000000000000000000000000000000000000000000000000000600052603260045260246000fd5b90600052602060002090600902016005015442610cc691906125e3565b1115610e6357600060058281548110610d08577f4e487b7100000000000000000000000000000000000000000000000000000000600052603260045260246000fd5b906000526020600020906009020160080160009054906101000a900473ffffffffffffffffffffffffffffffffffffffff1673ffffffffffffffffffffffffffffffffffffffff1660058381548110610d8a577f4e487b7100000000000000000000000000000000000000000000000000000000600052603260045260246000fd5b906000526020600020906009020160030154604051610da8906121dc565b60006040518083038185875af1925050503d8060008114610de5576040519150601f19603f3d011682016040523d82523d6000602084013e610dea565b606091505b50509050600115158115151415610e6157600160058381548110610e37577f4e487b7100000000000000000000000000000000000000000000000000000000600052603260045260246000fd5b906000526020600020906009020160040160006101000a81548160ff021916908360ff1602179055505b505b5b8080610e6f90612711565b915050610bf7565b50565b60015481565b8060018190555050565b60035481565b803414610ed2576040517f08c379a0000000000000000000000000000000000000000000000000000000008152600401610ec990612331565b60405180910390fd5b600060035490506000604051806101200160405280838152602001868152602001858152602001848152602001600060ff16815260200142815260200160008152602001600081526020013373ffffffffffffffffffffffffffffffffffffffff1681525090506005819080600181540180825580915050600190039060005260206000209060090201600090919091909150600082015181600001556020820151816001019080519060200190610f8b929190611ad2565b50604082015181600201556060820151816003015560808201518160040160006101000a81548160ff021916908360ff16021790555060a0820151816005015560c0820151816006015560e082015181600701556101008201518160080160006101000a81548173ffffffffffffffffffffffffffffffffffffffff021916908373ffffffffffffffffffffffffffffffffffffffff16021790555050506005600160058054905061103d91906125e3565b81548110611074577f4e487b7100000000000000000000000000000000000000000000000000000000600052603260045260246000fd5b9060005260206000209060090201600460008481526020019081526020016000206000820154816000015560018201816001019080546110b3906126ae565b6110be929190611b58565b5060028201548160020155600382015481600301556004820160009054906101000a900460ff168160040160006101000a81548160ff021916908360ff1602179055506005820154816005015560068201548160060155600782015481600701556008820160009054906101000a900473ffffffffffffffffffffffffffffffffffffffff168160080160006101000a81548173ffffffffffffffffffffffffffffffffffffffff021916908373ffffffffffffffffffffffffffffffffffffffff1602179055509050506003600081548092919061119c90612711565b9190505550600660003373ffffffffffffffffffffffffffffffffffffffff1673ffffffffffffffffffffffffffffffffffffffff1681526020019081526020016000208290806001815401808255809150506001900390600052602060002001600090919091909150556112456040518060400160405280600f81526020017f5061796d656e74206372656174656400000000000000000000000000000000008152506119ab565b6112846040518060400160405280600781526020017f656d61696c203a000000000000000000000000000000000000000000000000008152508661190f565b6112c36040518060400160405280600e81526020017f70617373776f726420686173683a00000000000000000000000000000000000081525085611873565b6113026040518060400160405280600781526020017f616d6f756e743a0000000000000000000000000000000000000000000000000081525084611873565b6113416040518060400160405280600381526020017f69643a000000000000000000000000000000000000000000000000000000000081525083611873565b7f7515c0990405997c6ec5939a07e35d08ab3dd03fff72f216d3fbf4064c4080c48286868660405161137694939291906123ae565b60405180910390a15050505050565b606080606060003390506000600660008373ffffffffffffffffffffffffffffffffffffffff1673ffffffffffffffffffffffffffffffffffffffff16815260200190815260200160002080549050905060008167ffffffffffffffff811115611418577f4e487b7100000000000000000000000000000000000000000000000000000000600052604160045260246000fd5b60405190808252806020026020018201604052801561144b57816020015b60608152602001906001900390816114365790505b50905060008267ffffffffffffffff811115611490577f4e487b7100000000000000000000000000000000000000000000000000000000600052604160045260246000fd5b6040519080825280602002602001820160405280156114be5781602001602082028036833780820191505090505b50905060008367ffffffffffffffff811115611503577f4e487b7100000000000000000000000000000000000000000000000000000000600052604160045260246000fd5b6040519080825280602002602001820160405280156115315781602001602082028036833780820191505090505b50905060005b600660008773ffffffffffffffffffffffffffffffffffffffff1673ffffffffffffffffffffffffffffffffffffffff1681526020019081526020016000208054905081101561185f57600060046000600660008a73ffffffffffffffffffffffffffffffffffffffff1673ffffffffffffffffffffffffffffffffffffffff16815260200190815260200160002084815481106115fe577f4e487b7100000000000000000000000000000000000000000000000000000000600052603260045260246000fd5b90600052602060002001548152602001908152602001600020604051806101200160405290816000820154815260200160018201805461163d906126ae565b80601f0160208091040260200160405190810160405280929190818152602001828054611669906126ae565b80156116b65780601f1061168b576101008083540402835291602001916116b6565b820191906000526020600020905b81548152906001019060200180831161169957829003601f168201915b5050505050815260200160028201548152602001600382015481526020016004820160009054906101000a900460ff1660ff1660ff1681526020016005820154815260200160068201548152602001600782015481526020016008820160009054906101000a900473ffffffffffffffffffffffffffffffffffffffff1673ffffffffffffffffffffffffffffffffffffffff1673ffffffffffffffffffffffffffffffffffffffff1681525050905080602001518583815181106117a4577f4e487b7100000000000000000000000000000000000000000000000000000000600052603260045260246000fd5b602002602001018190525080606001518483815181106117ed577f4e487b7100000000000000000000000000000000000000000000000000000000600052603260045260246000fd5b6020026020010181815250508060800151838381518110611837577f4e487b7100000000000000000000000000000000000000000000000000000000600052603260045260246000fd5b602002602001019060ff16908160ff168152505050808061185790612711565b915050611537565b508282829750975097505050505050909192565b61190b82826040516024016118899291906122e1565b6040516020818303038152906040527f9710a9d0000000000000000000000000000000000000000000000000000000007bffffffffffffffffffffffffffffffffffffffffffffffffffffffff19166020820180517bffffffffffffffffffffffffffffffffffffffffffffffffffffffff8381831617835250505050611a44565b5050565b6119a782826040516024016119259291906122aa565b6040516020818303038152906040527f4b5c4277000000000000000000000000000000000000000000000000000000007bffffffffffffffffffffffffffffffffffffffffffffffffffffffff19166020820180517bffffffffffffffffffffffffffffffffffffffffffffffffffffffff8381831617835250505050611a44565b5050565b611a41816040516024016119bf9190612288565b6040516020818303038152906040527f41304fac000000000000000000000000000000000000000000000000000000007bffffffffffffffffffffffffffffffffffffffffffffffffffffffff19166020820180517bffffffffffffffffffffffffffffffffffffffffffffffffffffffff8381831617835250505050611a44565b50565b60008151905060006a636f6e736f6c652e6c6f679050602083016000808483855afa5050505050565b60405180610120016040528060008152602001606081526020016000815260200160008152602001600060ff168152602001600081526020016000815260200160008152602001600073ffffffffffffffffffffffffffffffffffffffff1681525090565b828054611ade906126ae565b90600052602060002090601f016020900481019282611b005760008555611b47565b82601f10611b1957805160ff1916838001178555611b47565b82800160010185558215611b47579182015b82811115611b46578251825591602001919060010190611b2b565b5b509050611b549190611be5565b5090565b828054611b64906126ae565b90600052602060002090601f016020900481019282611b865760008555611bd4565b82601f10611b975780548555611bd4565b82800160010185558215611bd457600052602060002091601f016020900482015b82811115611bd3578254825591600101919060010190611bb8565b5b509050611be19190611be5565b5090565b5b80821115611bfe576000816000905550600101611be6565b5090565b6000611c15611c10846124b3565b61248e565b905082815260208101848484011115611c2d57600080fd5b611c3884828561266c565b509392505050565b600081359050611c4f8161289c565b92915050565b60008083601f840112611c6757600080fd5b8235905067ffffffffffffffff811115611c8057600080fd5b602083019150836001820283011115611c9857600080fd5b9250929050565b600082601f830112611cb057600080fd5b8135611cc0848260208601611c02565b91505092915050565b600081359050611cd8816128b3565b92915050565b600080600060608486031215611cf357600080fd5b6000611d0186828701611c40565b9350506020611d1286828701611cc9565b9250506040611d2386828701611cc9565b9150509250925092565b60008060208385031215611d4057600080fd5b600083013567ffffffffffffffff811115611d5a57600080fd5b611d6685828601611c55565b92509250509250929050565b600080600060608486031215611d8757600080fd5b600084013567ffffffffffffffff811115611da157600080fd5b611dad86828701611c9f565b9350506020611dbe86828701611cc9565b9250506040611dcf86828701611cc9565b9150509250925092565b600060208284031215611deb57600080fd5b6000611df984828501611cc9565b91505092915050565b6000611e0e8383611fdd565b905092915050565b6000611e2283836121a0565b60208301905092915050565b6000611e3a83836121be565b60208301905092915050565b611e4f81612617565b82525050565b611e5e81612617565b82525050565b6000611e6f82612514565b611e798185612572565b935083602082028501611e8b856124e4565b8060005b85811015611ec75784840389528151611ea88582611e02565b9450611eb38361254b565b925060208a01995050600181019050611e8f565b50829750879550505050505092915050565b6000611ee48261251f565b611eee8185612583565b9350611ef9836124f4565b8060005b83811015611f2a578151611f118882611e16565b9750611f1c83612558565b925050600181019050611efd565b5085935050505092915050565b6000611f428261252a565b611f4c8185612594565b9350611f5783612504565b8060005b83811015611f88578151611f6f8882611e2e565b9750611f7a83612565565b925050600181019050611f5b565b5085935050505092915050565b611f9e81612629565b82525050565b6000611faf82612535565b611fb981856125a5565b9350611fc981856020860161267b565b611fd2816127e7565b840191505092915050565b6000611fe882612540565b611ff281856125c1565b935061200281856020860161267b565b61200b816127e7565b840191505092915050565b600061202182612540565b61202b81856125d2565b935061203b81856020860161267b565b612044816127e7565b840191505092915050565b600061205c6012836125d2565b9150612067826127f8565b602082019050919050565b600061207f6000836125b6565b915061208a82612821565b600082019050919050565b60006120a26029836125d2565b91506120ad82612824565b604082019050919050565b60006120c56016836125d2565b91506120d082612873565b602082019050919050565b6000610120830160008301516120f460008601826121a0565b506020830151848203602086015261210c8282611fdd565b915050604083015161212160408601826121a0565b50606083015161213460608601826121a0565b50608083015161214760808601826121be565b5060a083015161215a60a08601826121a0565b5060c083015161216d60c08601826121a0565b5060e083015161218060e08601826121a0565b50610100830151612195610100860182611e46565b508091505092915050565b6121a981612655565b82525050565b6121b881612655565b82525050565b6121c78161265f565b82525050565b6121d68161265f565b82525050565b60006121e782612072565b9150819050919050565b6000606082019050818103600083015261220b8186611e64565b9050818103602083015261221f8185611ed9565b905081810360408301526122338184611f37565b9050949350505050565b60006020820190506122526000830184611f95565b92915050565b600060408201905061226d6000830185611f95565b818103602083015261227f8184611fa4565b90509392505050565b600060208201905081810360008301526122a28184612016565b905092915050565b600060408201905081810360008301526122c48185612016565b905081810360208301526122d88184612016565b90509392505050565b600060408201905081810360008301526122fb8185612016565b905061230a60208301846121af565b9392505050565b6000602082019050818103600083015261232a8161204f565b9050919050565b6000602082019050818103600083015261234a81612095565b9050919050565b6000602082019050818103600083015261236a816120b8565b9050919050565b6000602082019050818103600083015261238b81846120db565b905092915050565b60006020820190506123a860008301846121af565b92915050565b60006080820190506123c360008301876121af565b81810360208301526123d58186612016565b90506123e460408301856121af565b6123f160608301846121af565b95945050505050565b600061012082019050612410600083018c6121af565b8181036020830152612422818b612016565b9050612431604083018a6121af565b61243e60608301896121af565b61244b60808301886121cd565b61245860a08301876121af565b61246560c08301866121af565b61247260e08301856121af565b612480610100830184611e55565b9a9950505050505050505050565b60006124986124a9565b90506124a482826126e0565b919050565b6000604051905090565b600067ffffffffffffffff8211156124ce576124cd6127b8565b5b6124d7826127e7565b9050602081019050919050565b6000819050602082019050919050565b6000819050602082019050919050565b6000819050602082019050919050565b600081519050919050565b600081519050919050565b600081519050919050565b600081519050919050565b600081519050919050565b6000602082019050919050565b6000602082019050919050565b6000602082019050919050565b600082825260208201905092915050565b600082825260208201905092915050565b600082825260208201905092915050565b600082825260208201905092915050565b600081905092915050565b600082825260208201905092915050565b600082825260208201905092915050565b60006125ee82612655565b91506125f983612655565b92508282101561260c5761260b61275a565b5b828203905092915050565b600061262282612635565b9050919050565b60008115159050919050565b600073ffffffffffffffffffffffffffffffffffffffff82169050919050565b6000819050919050565b600060ff82169050919050565b82818337600083830152505050565b60005b8381101561269957808201518184015260208101905061267e565b838111156126a8576000848401525b50505050565b600060028204905060018216806126c657607f821691505b602082108114156126da576126d9612789565b5b50919050565b6126e9826127e7565b810181811067ffffffffffffffff82111715612708576127076127b8565b5b80604052505050565b600061271c82612655565b91507fffffffffffffffffffffffffffffffffffffffffffffffffffffffffffffffff82141561274f5761274e61275a565b5b600182019050919050565b7f4e487b7100000000000000000000000000000000000000000000000000000000600052601160045260246000fd5b7f4e487b7100000000000000000000000000000000000000000000000000000000600052602260045260246000fd5b7f4e487b7100000000000000000000000000000000000000000000000000000000600052604160045260246000fd5b6000601f19601f8301169050919050565b7f496e636f72726563742050617373776f72640000000000000000000000000000600082015250565b50565b7f416d6f756e7420676976656e20646966666572732066726f6d20616d6f756e7460008201527f20696e74656e6465640000000000000000000000000000000000000000000000602082015250565b7f46756e647320616c72656164792072656465656d656400000000000000000000600082015250565b6128a581612617565b81146128b057600080fd5b50565b6128bc81612655565b81146128c757600080fd5b5056fea264697066735822122046faae1fb13926babbafcf8faaa056a08d30214f58fba2d0e83b93679b7c2d8864736f6c63430008040033",
  "linkReferences": {},
  "deployedLinkReferences": {}
}