{
  "_format": "hh-sol-artifact-1",
  "contractName": "MagicPay",
  "sourceName": "contracts/MagicPay.sol",
  "abi": [
    {
      "anonymous": false,
      "inputs": [
        {
          "indexed": false,
          "internalType": "uint256",
          "name": "id",
          "type": "uint256"
        },
        {
          "indexed": false,
          "internalType": "uint256",
          "name": "email",
          "type": "uint256"
        },
        {
          "indexed": false,
          "internalType": "uint256",
          "name": "password",
          "type": "uint256"
        },
        {
          "indexed": false,
          "internalType": "uint256",
          "name": "amount",
          "type": "uint256"
        }
      ],
      "name": "PaymentCreated",
      "type": "event"
    },
    {
      "inputs": [
        {
          "internalType": "uint256",
          "name": "email",
          "type": "uint256"
        },
        {
          "internalType": "uint256",
          "name": "password",
          "type": "uint256"
        },
        {
          "internalType": "uint256",
          "name": "amount",
          "type": "uint256"
        }
      ],
      "name": "createPayment",
      "outputs": [],
      "stateMutability": "payable",
      "type": "function"
    },
    {
      "inputs": [
        {
          "internalType": "uint256",
          "name": "_id",
          "type": "uint256"
        }
      ],
      "name": "getPayment",
      "outputs": [
        {
          "components": [
            {
              "internalType": "uint256",
              "name": "id",
              "type": "uint256"
            },
            {
              "internalType": "uint256",
              "name": "email",
              "type": "uint256"
            },
            {
              "internalType": "uint256",
              "name": "password",
              "type": "uint256"
            },
            {
              "internalType": "uint256",
              "name": "amount",
              "type": "uint256"
            },
            {
              "internalType": "uint8",
              "name": "status",
              "type": "uint8"
            }
          ],
          "internalType": "struct MagicPay.Payment",
          "name": "",
          "type": "tuple"
        }
      ],
      "stateMutability": "view",
      "type": "function"
    },
    {
      "inputs": [],
      "name": "id",
      "outputs": [
        {
          "internalType": "uint256",
          "name": "",
          "type": "uint256"
        }
      ],
      "stateMutability": "view",
      "type": "function"
    },
    {
      "inputs": [
        {
          "internalType": "uint256",
          "name": "",
          "type": "uint256"
        }
      ],
      "name": "payments",
      "outputs": [
        {
          "internalType": "uint256",
          "name": "id",
          "type": "uint256"
        },
        {
          "internalType": "uint256",
          "name": "email",
          "type": "uint256"
        },
        {
          "internalType": "uint256",
          "name": "password",
          "type": "uint256"
        },
        {
          "internalType": "uint256",
          "name": "amount",
          "type": "uint256"
        },
        {
          "internalType": "uint8",
          "name": "status",
          "type": "uint8"
        }
      ],
      "stateMutability": "view",
      "type": "function"
    }
  ],
  "bytecode": "0x608060405234801561001057600080fd5b50610c90806100206000396000f3fe60806040526004361061003f5760003560e01c80633280a8361461004457806387d8178914610081578063af640d0f146100c2578063fdc5b959146100ed575b600080fd5b34801561005057600080fd5b5061006b60048036038101906100669190610819565b610109565b6040516100789190610a03565b60405180910390f35b34801561008d57600080fd5b506100a860048036038101906100a39190610819565b6102d3565b6040516100b9959493929190610a7e565b60405180910390f35b3480156100ce57600080fd5b506100d7610326565b6040516100e49190610a1e565b60405180910390f35b61010760048036038101906101029190610842565b61032c565b005b6101116107d2565b6000600160008481526020019081526020016000206040518060a0016040529081600082015481526020016001820154815260200160028201548152602001600382015481526020016004820160009054906101000a900460ff1660ff1660ff168152505090506101bb6040518060400160405280600381526020017f69643a00000000000000000000000000000000000000000000000000000000008152508260000151610674565b6101fe6040518060400160405280600681526020017f656d61696c3a00000000000000000000000000000000000000000000000000008152508260200151610674565b6102416040518060400160405280600981526020017f70617373776f72643a00000000000000000000000000000000000000000000008152508260400151610674565b6102846040518060400160405280600781526020017f616d6f756e743a000000000000000000000000000000000000000000000000008152508260600151610674565b6102ca6040518060400160405280600781526020017f7374617475733a00000000000000000000000000000000000000000000000000815250826080015160ff16610674565b80915050919050565b600281815481106102e357600080fd5b90600052602060002090600502016000915090508060000154908060010154908060020154908060030154908060040160009054906101000a900460ff16905085565b60005481565b80341461036e576040517f08c379a0000000000000000000000000000000000000000000000000000000008152600401610365906109e3565b60405180910390fd5b60008054905060006040518060a00160405280838152602001868152602001858152602001848152602001600060ff16815250905060028190806001815401808255809150506001900390600052602060002090600502016000909190919091506000820151816000015560208201518160010155604082015181600201556060820151816003015560808201518160040160006101000a81548160ff021916908360ff16021790555050506002600160028054905061042e9190610aed565b81548110610465577f4e487b7100000000000000000000000000000000000000000000000000000000600052603260045260246000fd5b906000526020600020906005020160016000848152602001908152602001600020600082015481600001556001820154816001015560028201548160020155600382015481600301556004820160009054906101000a900460ff168160040160006101000a81548160ff021916908360ff1602179055509050506000808154809291906104f190610b6b565b91905055506105346040518060400160405280600f81526020017f5061796d656e7420637265617465640000000000000000000000000000000000815250610710565b6105736040518060400160405280600b81526020017f656d61696c20686173683a00000000000000000000000000000000000000000081525086610674565b6105b26040518060400160405280600e81526020017f70617373776f726420686173683a00000000000000000000000000000000000081525085610674565b6105f16040518060400160405280600781526020017f616d6f756e743a0000000000000000000000000000000000000000000000000081525084610674565b6106306040518060400160405280600381526020017f69643a000000000000000000000000000000000000000000000000000000000081525083610674565b7fffb5a68960320d6cd71e01e7c1ed5d94375999092288d41c45b9884a74a49c5c828686866040516106659493929190610a39565b60405180910390a15050505050565b61070c828260405160240161068a9291906109b3565b6040516020818303038152906040527f9710a9d0000000000000000000000000000000000000000000000000000000007bffffffffffffffffffffffffffffffffffffffffffffffffffffffff19166020820180517bffffffffffffffffffffffffffffffffffffffffffffffffffffffff83818316178352505050506107a9565b5050565b6107a6816040516024016107249190610991565b6040516020818303038152906040527f41304fac000000000000000000000000000000000000000000000000000000007bffffffffffffffffffffffffffffffffffffffffffffffffffffffff19166020820180517bffffffffffffffffffffffffffffffffffffffffffffffffffffffff83818316178352505050506107a9565b50565b60008151905060006a636f6e736f6c652e6c6f679050602083016000808483855afa5050505050565b6040518060a0016040528060008152602001600081526020016000815260200160008152602001600060ff1681525090565b60008135905061081381610c43565b92915050565b60006020828403121561082b57600080fd5b600061083984828501610804565b91505092915050565b60008060006060848603121561085757600080fd5b600061086586828701610804565b935050602061087686828701610804565b925050604061088786828701610804565b9150509250925092565b600061089c82610ad1565b6108a68185610adc565b93506108b6818560208601610b38565b6108bf81610be3565b840191505092915050565b60006108d7602983610adc565b91506108e282610bf4565b604082019050919050565b60a0820160008201516109036000850182610955565b5060208201516109166020850182610955565b5060408201516109296040850182610955565b50606082015161093c6060850182610955565b50608082015161094f6080850182610973565b50505050565b61095e81610b21565b82525050565b61096d81610b21565b82525050565b61097c81610b2b565b82525050565b61098b81610b2b565b82525050565b600060208201905081810360008301526109ab8184610891565b905092915050565b600060408201905081810360008301526109cd8185610891565b90506109dc6020830184610964565b9392505050565b600060208201905081810360008301526109fc816108ca565b9050919050565b600060a082019050610a1860008301846108ed565b92915050565b6000602082019050610a336000830184610964565b92915050565b6000608082019050610a4e6000830187610964565b610a5b6020830186610964565b610a686040830185610964565b610a756060830184610964565b95945050505050565b600060a082019050610a936000830188610964565b610aa06020830187610964565b610aad6040830186610964565b610aba6060830185610964565b610ac76080830184610982565b9695505050505050565b600081519050919050565b600082825260208201905092915050565b6000610af882610b21565b9150610b0383610b21565b925082821015610b1657610b15610bb4565b5b828203905092915050565b6000819050919050565b600060ff82169050919050565b60005b83811015610b56578082015181840152602081019050610b3b565b83811115610b65576000848401525b50505050565b6000610b7682610b21565b91507fffffffffffffffffffffffffffffffffffffffffffffffffffffffffffffffff821415610ba957610ba8610bb4565b5b600182019050919050565b7f4e487b7100000000000000000000000000000000000000000000000000000000600052601160045260246000fd5b6000601f19601f8301169050919050565b7f416d6f756e7420676976656e20646966666572732066726f6d20616d6f756e7460008201527f20696e74656e6465640000000000000000000000000000000000000000000000602082015250565b610c4c81610b21565b8114610c5757600080fd5b5056fea2646970667358221220bac8933979f8ffa098c0400acb30fdfcaa107bae2c7e15458f46d02c3f2cd7c364736f6c63430008040033",
  "linkReferences": {},
  "deployedLinkReferences": {}
}