{
  "_format": "hh-sol-artifact-1",
  "contractName": "MagicPay",
  "sourceName": "contracts/MagicPay.sol",
  "abi": [
    {
      "anonymous": false,
      "inputs": [
        {
          "indexed": false,
          "internalType": "uint256",
          "name": "id",
          "type": "uint256"
        },
        {
          "indexed": false,
          "internalType": "string",
          "name": "email",
          "type": "string"
        },
        {
          "indexed": false,
          "internalType": "uint256",
          "name": "password",
          "type": "uint256"
        },
        {
          "indexed": false,
          "internalType": "uint256",
          "name": "amount",
          "type": "uint256"
        }
      ],
      "name": "PaymentCreated",
      "type": "event"
    },
    {
      "inputs": [
        {
          "internalType": "string",
          "name": "email",
          "type": "string"
        },
        {
          "internalType": "uint256",
          "name": "password",
          "type": "uint256"
        },
        {
          "internalType": "uint256",
          "name": "amount",
          "type": "uint256"
        }
      ],
      "name": "createPayment",
      "outputs": [],
      "stateMutability": "payable",
      "type": "function"
    },
    {
      "inputs": [
        {
          "internalType": "uint256",
          "name": "_id",
          "type": "uint256"
        }
      ],
      "name": "getPayment",
      "outputs": [
        {
          "components": [
            {
              "internalType": "uint256",
              "name": "id",
              "type": "uint256"
            },
            {
              "internalType": "string",
              "name": "email",
              "type": "string"
            },
            {
              "internalType": "uint256",
              "name": "password",
              "type": "uint256"
            },
            {
              "internalType": "uint256",
              "name": "amount",
              "type": "uint256"
            },
            {
              "internalType": "uint8",
              "name": "status",
              "type": "uint8"
            }
          ],
          "internalType": "struct MagicPay.Payment",
          "name": "",
          "type": "tuple"
        }
      ],
      "stateMutability": "view",
      "type": "function"
    },
    {
      "inputs": [],
      "name": "id",
      "outputs": [
        {
          "internalType": "uint256",
          "name": "",
          "type": "uint256"
        }
      ],
      "stateMutability": "view",
      "type": "function"
    },
    {
      "inputs": [
        {
          "internalType": "uint256",
          "name": "",
          "type": "uint256"
        }
      ],
      "name": "payments",
      "outputs": [
        {
          "internalType": "uint256",
          "name": "id",
          "type": "uint256"
        },
        {
          "internalType": "string",
          "name": "email",
          "type": "string"
        },
        {
          "internalType": "uint256",
          "name": "password",
          "type": "uint256"
        },
        {
          "internalType": "uint256",
          "name": "amount",
          "type": "uint256"
        },
        {
          "internalType": "uint8",
          "name": "status",
          "type": "uint8"
        }
      ],
      "stateMutability": "view",
      "type": "function"
    },
    {
      "inputs": [
        {
          "internalType": "address",
          "name": "receiver",
          "type": "address"
        },
        {
          "internalType": "uint256",
          "name": "_id",
          "type": "uint256"
        },
        {
          "internalType": "uint256",
          "name": "password",
          "type": "uint256"
        }
      ],
      "name": "sendPayment",
      "outputs": [
        {
          "internalType": "bool",
          "name": "",
          "type": "bool"
        }
      ],
      "stateMutability": "nonpayable",
      "type": "function"
    }
  ],
  "bytecode": "0x608060405234801561001057600080fd5b50611574806100206000396000f3fe60806040526004361061004a5760003560e01c80633280a8361461004f57806387d817891461008c5780638d82e72f146100cd578063af640d0f1461010a578063b6555f9f14610135575b600080fd5b34801561005b57600080fd5b5061007660048036038101906100719190610e51565b610151565b604051610083919061110f565b60405180910390f35b34801561009857600080fd5b506100b360048036038101906100ae9190610e51565b6103a3565b6040516100c4959493929190611198565b60405180910390f35b3480156100d957600080fd5b506100f460048036038101906100ef9190610d9b565b61047e565b604051610101919061102b565b60405180910390f35b34801561011657600080fd5b5061011f610636565b60405161012c9190611131565b60405180910390f35b61014f600480360381019061014a9190610dea565b61063c565b005b610159610ba7565b6000600160008481526020019081526020016000206040518060a0016040529081600082015481526020016001820180546101939061134b565b80601f01602080910402602001604051908101604052809291908181526020018280546101bf9061134b565b801561020c5780601f106101e15761010080835404028352916020019161020c565b820191906000526020600020905b8154815290600101906020018083116101ef57829003601f168201915b5050505050815260200160028201548152602001600382015481526020016004820160009054906101000a900460ff1660ff1660ff1681525050905061028b6040518060400160405280600381526020017f69643a000000000000000000000000000000000000000000000000000000000081525082600001516109ad565b6102ce6040518060400160405280600681526020017f656d61696c3a00000000000000000000000000000000000000000000000000008152508260200151610a49565b6103116040518060400160405280600981526020017f70617373776f72643a000000000000000000000000000000000000000000000081525082604001516109ad565b6103546040518060400160405280600781526020017f616d6f756e743a0000000000000000000000000000000000000000000000000081525082606001516109ad565b61039a6040518060400160405280600781526020017f7374617475733a00000000000000000000000000000000000000000000000000815250826080015160ff166109ad565b80915050919050565b600281815481106103b357600080fd5b90600052602060002090600502016000915090508060000154908060010180546103dc9061134b565b80601f01602080910402602001604051908101604052809291908181526020018280546104089061134b565b80156104555780601f1061042a57610100808354040283529160200191610455565b820191906000526020600020905b81548152906001019060200180831161043857829003601f168201915b5050505050908060020154908060030154908060040160009054906101000a900460ff16905085565b600080600160008581526020019081526020016000206040518060a0016040529081600082015481526020016001820180546104b99061134b565b80601f01602080910402602001604051908101604052809291908181526020018280546104e59061134b565b80156105325780601f1061050757610100808354040283529160200191610532565b820191906000526020600020905b81548152906001019060200180831161051557829003601f168201915b5050505050815260200160028201548152602001600382015481526020016004820160009054906101000a900460ff1660ff1660ff16815250509050806040015183146105b4576040517f08c379a00000000000000000000000000000000000000000000000000000000081526004016105ab906110cf565b60405180910390fd5b60008160600151905060008673ffffffffffffffffffffffffffffffffffffffff16826040516105e390611016565b60006040518083038185875af1925050503d8060008114610620576040519150601f19603f3d011682016040523d82523d6000602084013e610625565b606091505b505090508093505050509392505050565b60005481565b80341461067e576040517f08c379a0000000000000000000000000000000000000000000000000000000008152600401610675906110ef565b60405180910390fd5b60008054905060006040518060a00160405280838152602001868152602001858152602001848152602001600060ff1681525090506002819080600181540180825580915050600190039060005260206000209060050201600090919091909150600082015181600001556020820151816001019080519060200190610705929190610bd9565b50604082015181600201556060820151816003015560808201518160040160006101000a81548160ff021916908360ff1602179055505050600260016002805490506107519190611280565b81548110610788577f4e487b7100000000000000000000000000000000000000000000000000000000600052603260045260246000fd5b9060005260206000209060050201600160008481526020019081526020016000206000820154816000015560018201816001019080546107c79061134b565b6107d2929190610c5f565b5060028201548160020155600382015481600301556004820160009054906101000a900460ff168160040160006101000a81548160ff021916908360ff16021790555090505060008081548092919061082a906113ae565b919050555061086d6040518060400160405280600f81526020017f5061796d656e7420637265617465640000000000000000000000000000000000815250610ae5565b6108ac6040518060400160405280600781526020017f656d61696c203a0000000000000000000000000000000000000000000000000081525086610a49565b6108eb6040518060400160405280600e81526020017f70617373776f726420686173683a000000000000000000000000000000000000815250856109ad565b61092a6040518060400160405280600781526020017f616d6f756e743a00000000000000000000000000000000000000000000000000815250846109ad565b6109696040518060400160405280600381526020017f69643a0000000000000000000000000000000000000000000000000000000000815250836109ad565b7f7515c0990405997c6ec5939a07e35d08ab3dd03fff72f216d3fbf4064c4080c48286868660405161099e949392919061114c565b60405180910390a15050505050565b610a4582826040516024016109c392919061109f565b6040516020818303038152906040527f9710a9d0000000000000000000000000000000000000000000000000000000007bffffffffffffffffffffffffffffffffffffffffffffffffffffffff19166020820180517bffffffffffffffffffffffffffffffffffffffffffffffffffffffff8381831617835250505050610b7e565b5050565b610ae18282604051602401610a5f929190611068565b6040516020818303038152906040527f4b5c4277000000000000000000000000000000000000000000000000000000007bffffffffffffffffffffffffffffffffffffffffffffffffffffffff19166020820180517bffffffffffffffffffffffffffffffffffffffffffffffffffffffff8381831617835250505050610b7e565b5050565b610b7b81604051602401610af99190611046565b6040516020818303038152906040527f41304fac000000000000000000000000000000000000000000000000000000007bffffffffffffffffffffffffffffffffffffffffffffffffffffffff19166020820180517bffffffffffffffffffffffffffffffffffffffffffffffffffffffff8381831617835250505050610b7e565b50565b60008151905060006a636f6e736f6c652e6c6f679050602083016000808483855afa5050505050565b6040518060a0016040528060008152602001606081526020016000815260200160008152602001600060ff1681525090565b828054610be59061134b565b90600052602060002090601f016020900481019282610c075760008555610c4e565b82601f10610c2057805160ff1916838001178555610c4e565b82800160010185558215610c4e579182015b82811115610c4d578251825591602001919060010190610c32565b5b509050610c5b9190610cec565b5090565b828054610c6b9061134b565b90600052602060002090601f016020900481019282610c8d5760008555610cdb565b82601f10610c9e5780548555610cdb565b82800160010185558215610cdb57600052602060002091601f016020900482015b82811115610cda578254825591600101919060010190610cbf565b5b509050610ce89190610cec565b5090565b5b80821115610d05576000816000905550600101610ced565b5090565b6000610d1c610d1784611217565b6111f2565b905082815260208101848484011115610d3457600080fd5b610d3f848285611309565b509392505050565b600081359050610d5681611510565b92915050565b600082601f830112610d6d57600080fd5b8135610d7d848260208601610d09565b91505092915050565b600081359050610d9581611527565b92915050565b600080600060608486031215610db057600080fd5b6000610dbe86828701610d47565b9350506020610dcf86828701610d86565b9250506040610de086828701610d86565b9150509250925092565b600080600060608486031215610dff57600080fd5b600084013567ffffffffffffffff811115610e1957600080fd5b610e2586828701610d5c565b9350506020610e3686828701610d86565b9250506040610e4786828701610d86565b9150509250925092565b600060208284031215610e6357600080fd5b6000610e7184828501610d86565b91505092915050565b610e83816112c6565b82525050565b6000610e9482611248565b610e9e818561125e565b9350610eae818560208601611318565b610eb781611484565b840191505092915050565b6000610ecd82611248565b610ed7818561126f565b9350610ee7818560208601611318565b610ef081611484565b840191505092915050565b6000610f0860128361126f565b9150610f1382611495565b602082019050919050565b6000610f2b600083611253565b9150610f36826114be565b600082019050919050565b6000610f4e60298361126f565b9150610f59826114c1565b604082019050919050565b600060a083016000830151610f7c6000860182610fda565b5060208301518482036020860152610f948282610e89565b9150506040830151610fa96040860182610fda565b506060830151610fbc6060860182610fda565b506080830151610fcf6080860182610ff8565b508091505092915050565b610fe3816112f2565b82525050565b610ff2816112f2565b82525050565b611001816112fc565b82525050565b611010816112fc565b82525050565b600061102182610f1e565b9150819050919050565b60006020820190506110406000830184610e7a565b92915050565b600060208201905081810360008301526110608184610ec2565b905092915050565b600060408201905081810360008301526110828185610ec2565b905081810360208301526110968184610ec2565b90509392505050565b600060408201905081810360008301526110b98185610ec2565b90506110c86020830184610fe9565b9392505050565b600060208201905081810360008301526110e881610efb565b9050919050565b6000602082019050818103600083015261110881610f41565b9050919050565b600060208201905081810360008301526111298184610f64565b905092915050565b60006020820190506111466000830184610fe9565b92915050565b60006080820190506111616000830187610fe9565b81810360208301526111738186610ec2565b90506111826040830185610fe9565b61118f6060830184610fe9565b95945050505050565b600060a0820190506111ad6000830188610fe9565b81810360208301526111bf8187610ec2565b90506111ce6040830186610fe9565b6111db6060830185610fe9565b6111e86080830184611007565b9695505050505050565b60006111fc61120d565b9050611208828261137d565b919050565b6000604051905090565b600067ffffffffffffffff82111561123257611231611455565b5b61123b82611484565b9050602081019050919050565b600081519050919050565b600081905092915050565b600082825260208201905092915050565b600082825260208201905092915050565b600061128b826112f2565b9150611296836112f2565b9250828210156112a9576112a86113f7565b5b828203905092915050565b60006112bf826112d2565b9050919050565b60008115159050919050565b600073ffffffffffffffffffffffffffffffffffffffff82169050919050565b6000819050919050565b600060ff82169050919050565b82818337600083830152505050565b60005b8381101561133657808201518184015260208101905061131b565b83811115611345576000848401525b50505050565b6000600282049050600182168061136357607f821691505b6020821081141561137757611376611426565b5b50919050565b61138682611484565b810181811067ffffffffffffffff821117156113a5576113a4611455565b5b80604052505050565b60006113b9826112f2565b91507fffffffffffffffffffffffffffffffffffffffffffffffffffffffffffffffff8214156113ec576113eb6113f7565b5b600182019050919050565b7f4e487b7100000000000000000000000000000000000000000000000000000000600052601160045260246000fd5b7f4e487b7100000000000000000000000000000000000000000000000000000000600052602260045260246000fd5b7f4e487b7100000000000000000000000000000000000000000000000000000000600052604160045260246000fd5b6000601f19601f8301169050919050565b7f496e636f72726563742050617373776f72640000000000000000000000000000600082015250565b50565b7f416d6f756e7420676976656e20646966666572732066726f6d20616d6f756e7460008201527f20696e74656e6465640000000000000000000000000000000000000000000000602082015250565b611519816112b4565b811461152457600080fd5b50565b611530816112f2565b811461153b57600080fd5b5056fea264697066735822122063f7b95c1473b69ee768f4451ffe4a0a5e7df662df89125b377180193b3be35e64736f6c63430008040033",
  "linkReferences": {},
  "deployedLinkReferences": {}
}